{
  "_format": "hh-sol-artifact-1",
  "contractName": "Lottery",
  "sourceName": "contracts/Lottery.sol",
  "abi": [
    {
      "inputs": [],
      "stateMutability": "nonpayable",
      "type": "constructor"
    },
    {
      "inputs": [],
      "name": "enter",
      "outputs": [],
      "stateMutability": "payable",
      "type": "function"
    },
    {
      "inputs": [],
      "name": "getPlayers",
      "outputs": [
        {
          "internalType": "address[]",
          "name": "",
          "type": "address[]"
        }
      ],
      "stateMutability": "view",
      "type": "function"
    },
    {
      "inputs": [],
      "name": "manager",
      "outputs": [
        {
          "internalType": "address",
          "name": "",
          "type": "address"
        }
      ],
      "stateMutability": "view",
      "type": "function"
    },
    {
      "inputs": [],
      "name": "pickWinner",
      "outputs": [
        {
          "internalType": "address",
          "name": "",
          "type": "address"
        }
      ],
      "stateMutability": "payable",
      "type": "function"
    },
    {
      "inputs": [
        {
          "internalType": "uint256",
          "name": "",
          "type": "uint256"
        }
      ],
      "name": "players",
      "outputs": [
        {
          "internalType": "address",
          "name": "",
          "type": "address"
        }
      ],
      "stateMutability": "view",
      "type": "function"
    }
  ],
  "bytecode": "0x6080604052348015600f57600080fd5b50336000806101000a81548173ffffffffffffffffffffffffffffffffffffffff021916908373ffffffffffffffffffffffffffffffffffffffff1602179055506108c98061005f6000396000f3fe60806040526004361061004a5760003560e01c8063481c6a751461004f5780635d495aea1461007a5780638b5b9ccc14610098578063e97dcb62146100c3578063f71d96cb146100cd575b600080fd5b34801561005b57600080fd5b5061006461010a565b60405161007191906104fa565b60405180910390f35b61008261012e565b60405161008f91906104fa565b60405180910390f35b3480156100a457600080fd5b506100ad610297565b6040516100ba91906105d3565b60405180910390f35b6100cb610325565b005b3480156100d957600080fd5b506100f460048036038101906100ef9190610630565b61039d565b60405161010191906104fa565b60405180910390f35b60008054906101000a900473ffffffffffffffffffffffffffffffffffffffff1681565b60008060009054906101000a900473ffffffffffffffffffffffffffffffffffffffff1673ffffffffffffffffffffffffffffffffffffffff163373ffffffffffffffffffffffffffffffffffffffff161461018957600080fd5b60006001805490506101996103dc565b6101a3919061068c565b90506000600182815481106101bb576101ba6106bd565b5b9060005260206000200160009054906101000a900473ffffffffffffffffffffffffffffffffffffffff1690508073ffffffffffffffffffffffffffffffffffffffff166108fc479081150290604051600060405180830381858888f1935050505015801561022e573d6000803e3d6000fd5b50600067ffffffffffffffff81111561024a576102496106ec565b5b6040519080825280602002602001820160405280156102785781602001602082028036833780820191505090505b506001908051906020019061028e929190610412565b50809250505090565b6060600180548060200260200160405190810160405280929190818152602001828054801561031b57602002820191906000526020600020905b8160009054906101000a900473ffffffffffffffffffffffffffffffffffffffff1673ffffffffffffffffffffffffffffffffffffffff16815260200190600101908083116102d1575b5050505050905090565b66038d7ea4c68000341161033857600080fd5b6001339080600181540180825580915050600190039060005260206000200160009091909190916101000a81548173ffffffffffffffffffffffffffffffffffffffff021916908373ffffffffffffffffffffffffffffffffffffffff160217905550565b600181815481106103ad57600080fd5b906000526020600020016000915054906101000a900473ffffffffffffffffffffffffffffffffffffffff1681565b6000444260016040516020016103f49392919061085a565b6040516020818303038152906040528051906020012060001c905090565b82805482825590600052602060002090810192821561048b579160200282015b8281111561048a5782518260006101000a81548173ffffffffffffffffffffffffffffffffffffffff021916908373ffffffffffffffffffffffffffffffffffffffff16021790555091602001919060010190610432565b5b509050610498919061049c565b5090565b5b808211156104b557600081600090555060010161049d565b5090565b600073ffffffffffffffffffffffffffffffffffffffff82169050919050565b60006104e4826104b9565b9050919050565b6104f4816104d9565b82525050565b600060208201905061050f60008301846104eb565b92915050565b600081519050919050565b600082825260208201905092915050565b6000819050602082019050919050565b61054a816104d9565b82525050565b600061055c8383610541565b60208301905092915050565b6000602082019050919050565b600061058082610515565b61058a8185610520565b935061059583610531565b8060005b838110156105c65781516105ad8882610550565b97506105b883610568565b925050600181019050610599565b5085935050505092915050565b600060208201905081810360008301526105ed8184610575565b905092915050565b600080fd5b6000819050919050565b61060d816105fa565b811461061857600080fd5b50565b60008135905061062a81610604565b92915050565b600060208284031215610646576106456105f5565b5b60006106548482850161061b565b91505092915050565b7f4e487b7100000000000000000000000000000000000000000000000000000000600052601260045260246000fd5b6000610697826105fa565b91506106a2836105fa565b9250826106b2576106b161065d565b5b828206905092915050565b7f4e487b7100000000000000000000000000000000000000000000000000000000600052603260045260246000fd5b7f4e487b7100000000000000000000000000000000000000000000000000000000600052604160045260246000fd5b6000819050919050565b610736610731826105fa565b61071b565b82525050565b600081549050919050565b600081905092915050565b60008190508160005260206000209050919050565b610770816104d9565b82525050565b60006107828383610767565b60208301905092915050565b60008160001c9050919050565b600073ffffffffffffffffffffffffffffffffffffffff82169050919050565b60006107ce6107c98361078e565b61079b565b9050919050565b60006107e182546107bb565b9050919050565b6000600182019050919050565b60006108008261073c565b61080a8185610747565b935061081583610752565b8060005b8381101561084d5761082a826107d5565b6108348882610776565b975061083f836107e8565b925050600181019050610819565b5085935050505092915050565b60006108668286610725565b6020820191506108768285610725565b60208201915061088682846107f5565b915081905094935050505056fea2646970667358221220e55e6a6d53b0d410d35d3d47894479219d791a7e87ac3577a7f267f1ef3f0bc364736f6c634300081e0033",
  "linkReferences": {},
  "deployedLinkReferences": {}
}