{
  "_format": "hh-sol-artifact-1",
  "contractName": "Campaign",
  "sourceName": "contracts/Campaign.sol",
  "abi": [
    {
      "inputs": [
        {
          "internalType": "uint256",
          "name": "minimum",
          "type": "uint256"
        },
        {
          "internalType": "address",
          "name": "creator",
          "type": "address"
        }
      ],
      "stateMutability": "nonpayable",
      "type": "constructor"
    },
    {
      "inputs": [
        {
          "internalType": "uint256",
          "name": "index",
          "type": "uint256"
        }
      ],
      "name": "approveRequest",
      "outputs": [],
      "stateMutability": "payable",
      "type": "function"
    },
    {
      "inputs": [],
      "name": "approverCount",
      "outputs": [
        {
          "internalType": "uint256",
          "name": "",
          "type": "uint256"
        }
      ],
      "stateMutability": "view",
      "type": "function"
    },
    {
      "inputs": [
        {
          "internalType": "address",
          "name": "",
          "type": "address"
        }
      ],
      "name": "approvers",
      "outputs": [
        {
          "internalType": "bool",
          "name": "",
          "type": "bool"
        }
      ],
      "stateMutability": "view",
      "type": "function"
    },
    {
      "inputs": [],
      "name": "contribute",
      "outputs": [],
      "stateMutability": "payable",
      "type": "function"
    },
    {
      "inputs": [
        {
          "internalType": "string",
          "name": "description",
          "type": "string"
        },
        {
          "internalType": "uint256",
          "name": "value",
          "type": "uint256"
        },
        {
          "internalType": "address",
          "name": "recipient",
          "type": "address"
        }
      ],
      "name": "createRequest",
      "outputs": [],
      "stateMutability": "payable",
      "type": "function"
    },
    {
      "inputs": [
        {
          "internalType": "uint256",
          "name": "index",
          "type": "uint256"
        }
      ],
      "name": "finalizeRequest",
      "outputs": [],
      "stateMutability": "payable",
      "type": "function"
    },
    {
      "inputs": [],
      "name": "manager",
      "outputs": [
        {
          "internalType": "address",
          "name": "",
          "type": "address"
        }
      ],
      "stateMutability": "view",
      "type": "function"
    },
    {
      "inputs": [],
      "name": "minimumContribution",
      "outputs": [
        {
          "internalType": "uint256",
          "name": "",
          "type": "uint256"
        }
      ],
      "stateMutability": "view",
      "type": "function"
    },
    {
      "inputs": [
        {
          "internalType": "uint256",
          "name": "",
          "type": "uint256"
        }
      ],
      "name": "requests",
      "outputs": [
        {
          "internalType": "string",
          "name": "description",
          "type": "string"
        },
        {
          "internalType": "uint256",
          "name": "value",
          "type": "uint256"
        },
        {
          "internalType": "address",
          "name": "recipient",
          "type": "address"
        },
        {
          "internalType": "bool",
          "name": "complete",
          "type": "bool"
        },
        {
          "internalType": "uint256",
          "name": "approvalCount",
          "type": "uint256"
        }
      ],
      "stateMutability": "view",
      "type": "function"
    }
  ],
  "bytecode": "0x608060405234801561001057600080fd5b5060405161107638038061107683398181016040528101906100329190610121565b6000600281905550806000806101000a81548173ffffffffffffffffffffffffffffffffffffffff021916908373ffffffffffffffffffffffffffffffffffffffff160217905550816001819055505050610161565b600080fd5b6000819050919050565b6100a08161008d565b81146100ab57600080fd5b50565b6000815190506100bd81610097565b92915050565b600073ffffffffffffffffffffffffffffffffffffffff82169050919050565b60006100ee826100c3565b9050919050565b6100fe816100e3565b811461010957600080fd5b50565b60008151905061011b816100f5565b92915050565b6000806040838503121561013857610137610088565b5b6000610146858286016100ae565b92505060206101578582860161010c565b9150509250929050565b610f06806101706000396000f3fe6080604052600436106100865760003560e01c806381d12c581161005957806381d12c581461013a5780638a9cfd551461017b578063937e09b114610197578063d7bb99ba146101c2578063d7d1bbdb146101cc57610086565b8063034410061461008b5780630a144391146100a7578063128e9be6146100e4578063481c6a751461010f575b600080fd5b6100a560048036038101906100a0919061077c565b6101e8565b005b3480156100b357600080fd5b506100ce60048036038101906100c99190610807565b610312565b6040516100db919061084f565b60405180910390f35b3480156100f057600080fd5b506100f9610332565b6040516101069190610879565b60405180910390f35b34801561011b57600080fd5b50610124610338565b60405161013191906108a3565b60405180910390f35b34801561014657600080fd5b50610161600480360381019061015c919061077c565b61035c565b60405161017295949392919061094e565b60405180910390f35b61019560048036038101906101909190610add565b610457565b005b3480156101a357600080fd5b506101ac61055e565b6040516101b99190610879565b60405180910390f35b6101ca610564565b005b6101e660048036038101906101e1919061077c565b6105e5565b005b60008054906101000a900473ffffffffffffffffffffffffffffffffffffffff1673ffffffffffffffffffffffffffffffffffffffff163373ffffffffffffffffffffffffffffffffffffffff161461024057600080fd5b60006004828154811061025657610255610b4c565b5b906000526020600020906005020190508060020160149054906101000a900460ff161561028257600080fd5b60018160020160146101000a81548160ff0219169083151502179055508060020160009054906101000a900473ffffffffffffffffffffffffffffffffffffffff1673ffffffffffffffffffffffffffffffffffffffff166108fc82600101549081150290604051600060405180830381858888f1935050505015801561030d573d6000803e3d6000fd5b505050565b60036020528060005260406000206000915054906101000a900460ff1681565b60025481565b60008054906101000a900473ffffffffffffffffffffffffffffffffffffffff1681565b6004818154811061036c57600080fd5b906000526020600020906005020160009150905080600001805461038f90610baa565b80601f01602080910402602001604051908101604052809291908181526020018280546103bb90610baa565b80156104085780601f106103dd57610100808354040283529160200191610408565b820191906000526020600020905b8154815290600101906020018083116103eb57829003601f168201915b5050505050908060010154908060020160009054906101000a900473ffffffffffffffffffffffffffffffffffffffff16908060020160149054906101000a900460ff16908060030154905085565b60008054906101000a900473ffffffffffffffffffffffffffffffffffffffff1673ffffffffffffffffffffffffffffffffffffffff163373ffffffffffffffffffffffffffffffffffffffff16146104af57600080fd5b600060046001816001815401808255809150500390600052602060002090600502019050838160000190816104e49190610d87565b50818160020160006101000a81548173ffffffffffffffffffffffffffffffffffffffff021916908373ffffffffffffffffffffffffffffffffffffffff16021790555082816001018190555060008160020160146101000a81548160ff0219169083151502179055506000816003018190555050505050565b60015481565b60015434101561057357600080fd5b6001600360003373ffffffffffffffffffffffffffffffffffffffff1673ffffffffffffffffffffffffffffffffffffffff16815260200190815260200160002060006101000a81548160ff021916908315150217905550600260008154809291906105de90610e88565b9190505550565b6000600482815481106105fb576105fa610b4c565b5b90600052602060002090600502019050600360003373ffffffffffffffffffffffffffffffffffffffff1673ffffffffffffffffffffffffffffffffffffffff16815260200190815260200160002060009054906101000a900460ff1661066157600080fd5b8060040160003373ffffffffffffffffffffffffffffffffffffffff1673ffffffffffffffffffffffffffffffffffffffff16815260200190815260200160002060009054906101000a900460ff16156106ba57600080fd5b60018160040160003373ffffffffffffffffffffffffffffffffffffffff1673ffffffffffffffffffffffffffffffffffffffff16815260200190815260200160002060006101000a81548160ff02191690831515021790555080600301600081548092919061072990610e88565b91905055505050565b6000604051905090565b600080fd5b600080fd5b6000819050919050565b61075981610746565b811461076457600080fd5b50565b60008135905061077681610750565b92915050565b6000602082840312156107925761079161073c565b5b60006107a084828501610767565b91505092915050565b600073ffffffffffffffffffffffffffffffffffffffff82169050919050565b60006107d4826107a9565b9050919050565b6107e4816107c9565b81146107ef57600080fd5b50565b600081359050610801816107db565b92915050565b60006020828403121561081d5761081c61073c565b5b600061082b848285016107f2565b91505092915050565b60008115159050919050565b61084981610834565b82525050565b60006020820190506108646000830184610840565b92915050565b61087381610746565b82525050565b600060208201905061088e600083018461086a565b92915050565b61089d816107c9565b82525050565b60006020820190506108b86000830184610894565b92915050565b600081519050919050565b600082825260208201905092915050565b60005b838110156108f85780820151818401526020810190506108dd565b60008484015250505050565b6000601f19601f8301169050919050565b6000610920826108be565b61092a81856108c9565b935061093a8185602086016108da565b61094381610904565b840191505092915050565b600060a08201905081810360008301526109688188610915565b9050610977602083018761086a565b6109846040830186610894565b6109916060830185610840565b61099e608083018461086a565b9695505050505050565b600080fd5b600080fd5b7f4e487b7100000000000000000000000000000000000000000000000000000000600052604160045260246000fd5b6109ea82610904565b810181811067ffffffffffffffff82111715610a0957610a086109b2565b5b80604052505050565b6000610a1c610732565b9050610a2882826109e1565b919050565b600067ffffffffffffffff821115610a4857610a476109b2565b5b610a5182610904565b9050602081019050919050565b82818337600083830152505050565b6000610a80610a7b84610a2d565b610a12565b905082815260208101848484011115610a9c57610a9b6109ad565b5b610aa7848285610a5e565b509392505050565b600082601f830112610ac457610ac36109a8565b5b8135610ad4848260208601610a6d565b91505092915050565b600080600060608486031215610af657610af561073c565b5b600084013567ffffffffffffffff811115610b1457610b13610741565b5b610b2086828701610aaf565b9350506020610b3186828701610767565b9250506040610b42868287016107f2565b9150509250925092565b7f4e487b7100000000000000000000000000000000000000000000000000000000600052603260045260246000fd5b7f4e487b7100000000000000000000000000000000000000000000000000000000600052602260045260246000fd5b60006002820490506001821680610bc257607f821691505b602082108103610bd557610bd4610b7b565b5b50919050565b60008190508160005260206000209050919050565b60006020601f8301049050919050565b600082821b905092915050565b600060088302610c3d7fffffffffffffffffffffffffffffffffffffffffffffffffffffffffffffffff82610c00565b610c478683610c00565b95508019841693508086168417925050509392505050565b6000819050919050565b6000610c84610c7f610c7a84610746565b610c5f565b610746565b9050919050565b6000819050919050565b610c9e83610c69565b610cb2610caa82610c8b565b848454610c0d565b825550505050565b600090565b610cc7610cba565b610cd2818484610c95565b505050565b5b81811015610cf657610ceb600082610cbf565b600181019050610cd8565b5050565b601f821115610d3b57610d0c81610bdb565b610d1584610bf0565b81016020851015610d24578190505b610d38610d3085610bf0565b830182610cd7565b50505b505050565b600082821c905092915050565b6000610d5e60001984600802610d40565b1980831691505092915050565b6000610d778383610d4d565b9150826002028217905092915050565b610d90826108be565b67ffffffffffffffff811115610da957610da86109b2565b5b610db38254610baa565b610dbe828285610cfa565b600060209050601f831160018114610df15760008415610ddf578287015190505b610de98582610d6b565b865550610e51565b601f198416610dff86610bdb565b60005b82811015610e2757848901518255600182019150602085019450602081019050610e02565b86831015610e445784890151610e40601f891682610d4d565b8355505b6001600288020188555050505b505050505050565b7f4e487b7100000000000000000000000000000000000000000000000000000000600052601160045260246000fd5b6000610e9382610746565b91507fffffffffffffffffffffffffffffffffffffffffffffffffffffffffffffffff8203610ec557610ec4610e59565b5b60018201905091905056fea2646970667358221220b549ea63022aebdeed6dba7473374430fba9b11be7fdf8eb7a9d1ca9144bbef864736f6c634300081c0033",
  "linkReferences": {},
  "deployedLinkReferences": {}
}