{
  "_format": "hh-sol-artifact-1",
  "contractName": "Campaign",
  "sourceName": "contracts/Campaign.sol",
  "abi": [
    {
      "inputs": [
        {
          "internalType": "uint256",
          "name": "minimum",
          "type": "uint256"
        },
        {
          "internalType": "address",
          "name": "creator",
          "type": "address"
        }
      ],
      "stateMutability": "nonpayable",
      "type": "constructor"
    },
    {
      "inputs": [
        {
          "internalType": "uint256",
          "name": "index",
          "type": "uint256"
        }
      ],
      "name": "approveRequest",
      "outputs": [],
      "stateMutability": "payable",
      "type": "function"
    },
    {
      "inputs": [],
      "name": "approverCount",
      "outputs": [
        {
          "internalType": "uint256",
          "name": "",
          "type": "uint256"
        }
      ],
      "stateMutability": "view",
      "type": "function"
    },
    {
      "inputs": [
        {
          "internalType": "address",
          "name": "",
          "type": "address"
        }
      ],
      "name": "approvers",
      "outputs": [
        {
          "internalType": "bool",
          "name": "",
          "type": "bool"
        }
      ],
      "stateMutability": "view",
      "type": "function"
    },
    {
      "inputs": [],
      "name": "contribute",
      "outputs": [],
      "stateMutability": "payable",
      "type": "function"
    },
    {
      "inputs": [
        {
          "internalType": "string",
          "name": "description",
          "type": "string"
        },
        {
          "internalType": "uint256",
          "name": "value",
          "type": "uint256"
        },
        {
          "internalType": "address",
          "name": "recipient",
          "type": "address"
        }
      ],
      "name": "createRequest",
      "outputs": [],
      "stateMutability": "payable",
      "type": "function"
    },
    {
      "inputs": [
        {
          "internalType": "uint256",
          "name": "index",
          "type": "uint256"
        }
      ],
      "name": "finalizeRequest",
      "outputs": [],
      "stateMutability": "payable",
      "type": "function"
    },
    {
      "inputs": [],
      "name": "manager",
      "outputs": [
        {
          "internalType": "address",
          "name": "",
          "type": "address"
        }
      ],
      "stateMutability": "view",
      "type": "function"
    },
    {
      "inputs": [],
      "name": "minimumContribution",
      "outputs": [
        {
          "internalType": "uint256",
          "name": "",
          "type": "uint256"
        }
      ],
      "stateMutability": "view",
      "type": "function"
    },
    {
      "inputs": [
        {
          "internalType": "uint256",
          "name": "",
          "type": "uint256"
        }
      ],
      "name": "requests",
      "outputs": [
        {
          "internalType": "string",
          "name": "description",
          "type": "string"
        },
        {
          "internalType": "uint256",
          "name": "value",
          "type": "uint256"
        },
        {
          "internalType": "address",
          "name": "recipient",
          "type": "address"
        },
        {
          "internalType": "bool",
          "name": "complete",
          "type": "bool"
        },
        {
          "internalType": "uint256",
          "name": "approvalCount",
          "type": "uint256"
        }
      ],
      "stateMutability": "view",
      "type": "function"
    }
  ],
  "bytecode": "0x608060405234801561001057600080fd5b5060405161114c38038061114c83398181016040528101906100329190610121565b6000600281905550806000806101000a81548173ffffffffffffffffffffffffffffffffffffffff021916908373ffffffffffffffffffffffffffffffffffffffff160217905550816001819055505050610161565b600080fd5b6000819050919050565b6100a08161008d565b81146100ab57600080fd5b50565b6000815190506100bd81610097565b92915050565b600073ffffffffffffffffffffffffffffffffffffffff82169050919050565b60006100ee826100c3565b9050919050565b6100fe816100e3565b811461010957600080fd5b50565b60008151905061011b816100f5565b92915050565b6000806040838503121561013857610137610088565b5b6000610146858286016100ae565b92505060206101578582860161010c565b9150509250929050565b610fdc806101706000396000f3fe6080604052600436106100865760003560e01c806381d12c581161005957806381d12c581461013a5780638a9cfd551461017b578063937e09b114610197578063d7bb99ba146101c2578063d7d1bbdb146101cc57610086565b8063034410061461008b5780630a144391146100a7578063128e9be6146100e4578063481c6a751461010f575b600080fd5b6100a560048036038101906100a091906107f2565b6101e8565b005b3480156100b357600080fd5b506100ce60048036038101906100c9919061087d565b610312565b6040516100db91906108c5565b60405180910390f35b3480156100f057600080fd5b506100f9610332565b60405161010691906108ef565b60405180910390f35b34801561011b57600080fd5b50610124610338565b6040516101319190610919565b60405180910390f35b34801561014657600080fd5b50610161600480360381019061015c91906107f2565b61035c565b6040516101729594939291906109c4565b60405180910390f35b61019560048036038101906101909190610b53565b610457565b005b3480156101a357600080fd5b506101ac6105b4565b6040516101b991906108ef565b60405180910390f35b6101ca6105ba565b005b6101e660048036038101906101e191906107f2565b61063b565b005b60008054906101000a900473ffffffffffffffffffffffffffffffffffffffff1673ffffffffffffffffffffffffffffffffffffffff163373ffffffffffffffffffffffffffffffffffffffff161461024057600080fd5b60006004828154811061025657610255610bc2565b5b906000526020600020906005020190508060020160149054906101000a900460ff161561028257600080fd5b60018160020160146101000a81548160ff0219169083151502179055508060020160009054906101000a900473ffffffffffffffffffffffffffffffffffffffff1673ffffffffffffffffffffffffffffffffffffffff166108fc82600101549081150290604051600060405180830381858888f1935050505015801561030d573d6000803e3d6000fd5b505050565b60036020528060005260406000206000915054906101000a900460ff1681565b60025481565b60008054906101000a900473ffffffffffffffffffffffffffffffffffffffff1681565b6004818154811061036c57600080fd5b906000526020600020906005020160009150905080600001805461038f90610c20565b80601f01602080910402602001604051908101604052809291908181526020018280546103bb90610c20565b80156104085780601f106103dd57610100808354040283529160200191610408565b820191906000526020600020905b8154815290600101906020018083116103eb57829003601f168201915b5050505050908060010154908060020160009054906101000a900473ffffffffffffffffffffffffffffffffffffffff16908060020160149054906101000a900460ff16908060030154905085565b60008054906101000a900473ffffffffffffffffffffffffffffffffffffffff1673ffffffffffffffffffffffffffffffffffffffff163373ffffffffffffffffffffffffffffffffffffffff16146104af57600080fd5b600360003373ffffffffffffffffffffffffffffffffffffffff1673ffffffffffffffffffffffffffffffffffffffff16815260200190815260200160002060009054906101000a900460ff1661050557600080fd5b6000600460018160018154018082558091505003906000526020600020906005020190508381600001908161053a9190610dfd565b50818160020160006101000a81548173ffffffffffffffffffffffffffffffffffffffff021916908373ffffffffffffffffffffffffffffffffffffffff16021790555082816001018190555060008160020160146101000a81548160ff0219169083151502179055506000816003018190555050505050565b60015481565b6001543410156105c957600080fd5b6001600360003373ffffffffffffffffffffffffffffffffffffffff1673ffffffffffffffffffffffffffffffffffffffff16815260200190815260200160002060006101000a81548160ff0219169083151502179055506002600081548092919061063490610efe565b9190505550565b60006004828154811061065157610650610bc2565b5b90600052602060002090600502019050600360003373ffffffffffffffffffffffffffffffffffffffff1673ffffffffffffffffffffffffffffffffffffffff16815260200190815260200160002060009054906101000a900460ff166106b757600080fd5b8060040160003373ffffffffffffffffffffffffffffffffffffffff1673ffffffffffffffffffffffffffffffffffffffff16815260200190815260200160002060009054906101000a900460ff161561071057600080fd5b600281600301546107219190610f75565b81600301541161073057600080fd5b60018160040160003373ffffffffffffffffffffffffffffffffffffffff1673ffffffffffffffffffffffffffffffffffffffff16815260200190815260200160002060006101000a81548160ff02191690831515021790555080600301600081548092919061079f90610efe565b91905055505050565b6000604051905090565b600080fd5b600080fd5b6000819050919050565b6107cf816107bc565b81146107da57600080fd5b50565b6000813590506107ec816107c6565b92915050565b600060208284031215610808576108076107b2565b5b6000610816848285016107dd565b91505092915050565b600073ffffffffffffffffffffffffffffffffffffffff82169050919050565b600061084a8261081f565b9050919050565b61085a8161083f565b811461086557600080fd5b50565b60008135905061087781610851565b92915050565b600060208284031215610893576108926107b2565b5b60006108a184828501610868565b91505092915050565b60008115159050919050565b6108bf816108aa565b82525050565b60006020820190506108da60008301846108b6565b92915050565b6108e9816107bc565b82525050565b600060208201905061090460008301846108e0565b92915050565b6109138161083f565b82525050565b600060208201905061092e600083018461090a565b92915050565b600081519050919050565b600082825260208201905092915050565b60005b8381101561096e578082015181840152602081019050610953565b60008484015250505050565b6000601f19601f8301169050919050565b600061099682610934565b6109a0818561093f565b93506109b0818560208601610950565b6109b98161097a565b840191505092915050565b600060a08201905081810360008301526109de818861098b565b90506109ed60208301876108e0565b6109fa604083018661090a565b610a0760608301856108b6565b610a1460808301846108e0565b9695505050505050565b600080fd5b600080fd5b7f4e487b7100000000000000000000000000000000000000000000000000000000600052604160045260246000fd5b610a608261097a565b810181811067ffffffffffffffff82111715610a7f57610a7e610a28565b5b80604052505050565b6000610a926107a8565b9050610a9e8282610a57565b919050565b600067ffffffffffffffff821115610abe57610abd610a28565b5b610ac78261097a565b9050602081019050919050565b82818337600083830152505050565b6000610af6610af184610aa3565b610a88565b905082815260208101848484011115610b1257610b11610a23565b5b610b1d848285610ad4565b509392505050565b600082601f830112610b3a57610b39610a1e565b5b8135610b4a848260208601610ae3565b91505092915050565b600080600060608486031215610b6c57610b6b6107b2565b5b600084013567ffffffffffffffff811115610b8a57610b896107b7565b5b610b9686828701610b25565b9350506020610ba7868287016107dd565b9250506040610bb886828701610868565b9150509250925092565b7f4e487b7100000000000000000000000000000000000000000000000000000000600052603260045260246000fd5b7f4e487b7100000000000000000000000000000000000000000000000000000000600052602260045260246000fd5b60006002820490506001821680610c3857607f821691505b602082108103610c4b57610c4a610bf1565b5b50919050565b60008190508160005260206000209050919050565b60006020601f8301049050919050565b600082821b905092915050565b600060088302610cb37fffffffffffffffffffffffffffffffffffffffffffffffffffffffffffffffff82610c76565b610cbd8683610c76565b95508019841693508086168417925050509392505050565b6000819050919050565b6000610cfa610cf5610cf0846107bc565b610cd5565b6107bc565b9050919050565b6000819050919050565b610d1483610cdf565b610d28610d2082610d01565b848454610c83565b825550505050565b600090565b610d3d610d30565b610d48818484610d0b565b505050565b5b81811015610d6c57610d61600082610d35565b600181019050610d4e565b5050565b601f821115610db157610d8281610c51565b610d8b84610c66565b81016020851015610d9a578190505b610dae610da685610c66565b830182610d4d565b50505b505050565b600082821c905092915050565b6000610dd460001984600802610db6565b1980831691505092915050565b6000610ded8383610dc3565b9150826002028217905092915050565b610e0682610934565b67ffffffffffffffff811115610e1f57610e1e610a28565b5b610e298254610c20565b610e34828285610d70565b600060209050601f831160018114610e675760008415610e55578287015190505b610e5f8582610de1565b865550610ec7565b601f198416610e7586610c51565b60005b82811015610e9d57848901518255600182019150602085019450602081019050610e78565b86831015610eba5784890151610eb6601f891682610dc3565b8355505b6001600288020188555050505b505050505050565b7f4e487b7100000000000000000000000000000000000000000000000000000000600052601160045260246000fd5b6000610f09826107bc565b91507fffffffffffffffffffffffffffffffffffffffffffffffffffffffffffffffff8203610f3b57610f3a610ecf565b5b600182019050919050565b7f4e487b7100000000000000000000000000000000000000000000000000000000600052601260045260246000fd5b6000610f80826107bc565b9150610f8b836107bc565b925082610f9b57610f9a610f46565b5b82820490509291505056fea264697066735822122037e5a7e7951590e80c749ea9edeb11f6f237e92a78f2962da2205bacd17b445164736f6c634300081c0033",
  "linkReferences": {},
  "deployedLinkReferences": {}
}